:020000040800F2
:10000000200400204501000877020008450200088E
:10001000750200088D01000821040008000000009E
:10002000000000000000000000000000B502000811
:100030008F01000800000000990200086103000819
:100040005F0100085F0100085F0100085F01000810
:100050005F0100085F0100085F0100085F01000800
:100060005F0100085F0100085F0100085F010008F0
:100070005F0100085F0100085F0100085F010008E0
:100080005F0100085F0100085F0100085F010008D0
:100090005F0100085F0100085F0100085F010008C0
:1000A0005F0100085F0100085F0100085F010008B0
:1000B0005F0100085F0100085F0100085F010008A0
:1000C0005F0100085F0100085F0100085F01000890
:1000D0005F0100085F0100085F0100085F01000880
:1000E0005F0100085F0100085F0100085F01000870
:1000F0005F0100085F0100085F0100085F01000860
:100100005F0100085F0100085F0100085F0100084F
:100110005F0100085F0100085F0100085F0100083F
:100120005F0100085F0100085F0100085F0100082F
:10013000DFF80CD000F018F8004800474104000830
:10014000200400200648804706480047FEE7FEE7F7
:10015000FEE7FEE7FEE7FEE7FEE7FEE7FEE7FEE777
:100160007D03000831010008064C074D06E0E068F9
:1001700040F0010394E8070098471034AC42F6D3EE
:10018000FFF7DAFF90040008B0040008FEE77047AC
:100190000249086008680028FCD17047140000205C
:1001A000F0B5CC78002204F00F03E40601D58C787A
:1001B00023430C784FF00F0C14F0FF0F4FF0010E9B
:1001C0001BD005680E880EFA02F42640A64210D114
:1001D00096000CFA06F725EA070703FA06F5CE782B
:1001E0003D43282E02D0482E02D002E0446100E0B8
:1001F0000461521C082AE5D305600A88FF2A1CD92D
:100200004468002202F108060EFA06F50E882E4018
:10021000AE420ED196000CFA06F7BC4303FA06F77D
:10022000CE783C43282E00D14561CE78482E00D1AF
:100230000561521C082AE5D34460F0BD4161704756
:1002400001617047FEE7000008B50121102000F0B1
:1002500025F84FF6FF70ADF8000010208DF8030070
:1002600003208DF8020069460148FFF799FF08BD99
:1002700000100140FEE770470907090E002806DA62
:1002800000F00F0000F1E02080F8141D704700F12D
:10029000E02080F80014704770470000044A0029ED
:1002A000916901D0014300E08143916170470000F2
:1002B00000100240704700000CB500222648009252
:1002C0000192016841F4803101604FF4A06301683C
:1002D00001F4003101910099491C0091019911B973
:1002E00000999942F3D10168890333D50121019125
:1002F0001A490A6842F010020A600A6822F00302F2
:100300000A600A6842F002020A604168416041687E
:100310004160416841F480614160416821F47C1191
:100320004160416841F4E8114160016841F0807129
:10033000016001688901FCD5416821F00301416039
:10034000416841F0020141604168C1F38101022925
:10035000FAD10CBD01920CBD0010024000200240F9
:100360000548D0E90121114481600168002902D0CB
:100370000168491E01607047140000200F4810B545
:10038000016841F00101016041680D4A114041607E
:1003900001680C4A11400160016821F4802101606C
:1003A000416821F4FE0141604FF41F018160FFF7B5
:1003B00083FF05494FF00060086010BD0010024047
:1003C0000000FFF8FFFFF6FE08ED00E070B51248F0
:1003D0004FF47A714FF080730268B2FBF1F09842EB
:1003E000FBD220F07F404FF0E024401E6061651793
:1003F0000F212846FFF740FF0020A0610720206161
:10040000064C0126002128466660FFF735FF60682C
:10041000002800D1666070BD00000020140000209C
:10042000FEE702E008C8121F08C1002AFAD170478F
:100430007047002001E001C1121F002AFBD1704764
:10044000FFF7C4FFFFF700FF104C4FF400564FF4C6
:100450007A7531462046FFF7F3FE6420FFF798FED9
:1004600031462046FFF7EAFE6420FFF791FE314651
:100470002046FFF7E5FE2846FFF78AFE3146204674
:10048000FFF7DCFE2846FFF783FEE2E7001001409D
:10049000B004000800000020200000002204000832
:1004A000D0040008200000200004000032040008EE
:1004B00000A24A0400000000000000000102030442
:1004C000060708090000000000000000000000000E
:0400000508000145A9
:00000001FF
