:020000040800F2
:1000000020040020450100087F0200084F0200087C
:100010007D0200088D010008510400080000000066
:10002000000000000000000000000000C102000805
:100030008F01000800000000A102000879030008F9
:100040005F0100085F0100085F0100085F01000810
:100050005F0100085F0100085F0100085F01000800
:100060005F0100085F0100085F0100085F010008F0
:100070005F0100085F0100085F0100085F010008E0
:100080005F0100085F0100085F0100085F010008D0
:100090005F0100085F0100085F0100085F010008C0
:1000A0005F0100085F0100085F0100085F010008B0
:1000B0005F0100085F0100085F0100085F010008A0
:1000C0005F0100085F0100085F0100085F01000890
:1000D0005F0100085F0100085F0100085F01000880
:1000E0005F0100085F0100085F0100085F01000870
:1000F0005F0100085F0100085F0100085F01000860
:100100005F0100085F0100085F0100085F0100084F
:100110005F0100085F0100085F0100085F0100083F
:100120005F0100085F0100085F0100085F0100082F
:10013000DFF80CD000F018F8004800477104000800
:10014000200400200648804706480047FEE7FEE7F7
:10015000FEE7FEE7FEE7FEE7FEE7FEE7FEE7FEE777
:100160009503000831010008064C074D06E0E068E1
:1001700040F0010394E8070098471034AC42F6D3EE
:10018000FFF7DAFFC4040008E4040008FEE7704744
:100190000249086008680028FCD17047140000205C
:1001A0002DE9F0410022CC7804F00F03E40601D5DC
:1001B0008C7823430C784FF00F0714F0FF0F4FF0AB
:1001C000010C1CD005680CFA02F40E882640A642E9
:1001D00011D1960007FA06F825EA080503FA06F891
:1001E00048EA0505CE78282E02D0482E02D002E03B
:1001F000446100E00461521C082AE4D305600A88C7
:10020000FF2A1ED94568002202F108060CFA06F4FE
:100210000E882640A64210D1960007FA06F825EA75
:10022000080503FA06F848EA0505CE78282E00D11D
:100230004461CE78482E00D10461521C082AE3D3D1
:100240004560BDE8F0814161704701617047FEE79C
:1002500008B50121102000F025F84FF6FF70ADF829
:10026000000010208DF8030003208DF8020069467D
:100270000148FFF795FF08BD00100140FEE77047F9
:100280000907090E002806DA00F00F0000F1E0204F
:1002900080F8141D704700F1E02080F800147047CA
:1002A00070470000054A002903D09169014391611C
:1002B00070479169814391617047000000100240CE
:1002C000704700F001B800000CB5002201920092C6
:1002D0002748016841F4803101604FF4A063016850
:1002E00001F4003100910199491C0191009911B963
:1002F00001999942F3D10168890302D50121009146
:1003000000E000920099012930D11A490A6842F0B0
:1003100010020A600A6822F003020A600A6842F0CA
:1003200002020A604168416041684160416841F4ED
:1003300080614160416821F47C114160416841F471
:10034000E8114160016841F0807101600168890134
:10035000FCD5416821F003014160416841F0020190
:1003600041604168C1F381010229FAD10CBD00004E
:1003700000100240002002400548D0E9012111444C
:1003800081600168002902D00168491E0160704740
:100390001400002010B50F48016841F00101016010
:1003A00041680D4A1140416001680C4A11400160EA
:1003B000016821F480210160416821F4FE0141605F
:1003C0004FF41F018160FFF77CFF06490448086075
:1003D00010BD0000001002400000FFF8FFFFF6FE15
:1003E0000040000808ED00E02DE9F047164D4FF4FD
:1003F0007A764FF0807900274FF0E0244FF0FF3AF3
:100400004FF007082868B0FBF6F1494501D30120F9
:100410000BE021F07F40401E60610F215046FFF746
:100420002FFFA761C4F8108000200028EAD1074CF4
:100430000125656000215046FFF722FF6068002813
:1004400000D16560BDE8F0870000002014000020A6
:10045000FEE702E008C8121F08C1002AFAD170475F
:100460007047002001E001C1121F002AFBD1704734
:10047000FFF790FFFFF7B8FFFFF7EAFE104C4FF4CD
:1004800000564FF47A7531462046FFF7DEFE6420B1
:10049000FFF77EFE31462046FFF7D5FE6420FFF7CA
:1004A00077FE31462046FFF7D0FE2846FFF770FE64
:1004B00031462046FFF7C7FE2846FFF769FEE2E710
:1004C00000100140E40400080000002020000000AB
:1004D0005204000804050008200000200004000069
:1004E0006204000800A24A040000000000000000AE
:1004F00001020304060708090000000000000000D4
:0405000000000000F7
:0400000508000145A9
:00000001FF
