:020000040800F2
:1000000000040020650100088B0200085B02000864
:1000100089020008AD010008B903000800000000D3
:10002000000000000000000000000000AD02000819
:10003000AF010008000000008D0200086503000801
:100040007F0100087F0100087F0100087F01000890
:100050007F0100087F0100087F0100087F01000880
:100060007F0100087F0100087F0100087F01000870
:100070007F0100087F0100087F0100087F01000860
:100080007F0100087F0100087F0100087F01000850
:100090007F0100087F0100087F0100087F01000840
:1000A0007F0100087F0100087F0100087F01000830
:1000B0007F0100087F0100087F0100087F01000820
:1000C0007F0100087F0100087F0100087F01000810
:1000D0007F0100087F0100087F0100087F01000800
:1000E0007F0100087F0100087F0100087F010008F0
:1000F0007F0100087F0100087F0100087F010008E0
:100100007F0100087F0100087F0100087F010008CF
:100110007F0100087F0100087F0100087F010008BF
:100120007F0100087F0100087F0100087F010008AF
:10013000DFF80CD000F028F800480047050400085C
:1001400000040020EFF30980704780F309887047AE
:10015000EFF30880704780F30888704740BA704713
:10016000C0BA70470648804706480047FEE7FEE7EA
:10017000FEE7FEE7FEE7FEE7FEE7FEE7FEE7FEE757
:100180006903000831010008064C074D06E0E068ED
:1001900040F0010394E8070098471034AC42F6D3CE
:1001A000FFF7CAFF2004000830040008FEE770478C
:1001B0002DE9F0410022CC7804F00F03E40601D5CC
:1001C0008C7823430C784FF00F0714F0FF0F4FF09B
:1001D000010C1CD005680CFA02F40E882640A642D9
:1001E00011D1960007FA06F825EA080503FA06F881
:1001F00048EA0505CE78282E02D0482E02D002E02B
:10020000446100E00461521C082AE4D305600A88B6
:10021000FF2A1ED94568002202F108060CFA06F4EE
:100220000E882640A64210D1960007FA06F825EA65
:10023000080503FA06F848EA0505CE78282E00D10D
:100240004461CE78482E00D10461521C082AE3D3C1
:100250004560BDE8F08101617047FEE708B5012106
:10026000102000F015F84FF6FF70ADF800001020D8
:100270008DF8030003208DF8020069460148FFF75E
:1002800097FF08BD00100140FEE77047704700006F
:10029000054A002903D09169014391617047916932
:1002A000814391617047000000100240704700F0E8
:1002B00001B800000CB500220192009227480168A5
:1002C00041F4803101604FF4A063016801F4003112
:1002D00000910199491C0191009911B90199994224
:1002E000F3D10168890302D50121009100E0009259
:1002F0000099012930D11A490A6842F010020A60B7
:100300000A6822F003020A600A6842F002020A60E8
:100310004168416041684160416841F480614160E9
:10032000416821F47C114160416841F4E811416069
:10033000016841F08071016001688901FCD5416864
:1003400021F003014160416841F0020141604168D0
:10035000C1F381010229FAD10CBD00000010024056
:10036000002002407047000010B50F48016841F0BE
:100370000101016041680D4A1140416001680C4A69
:1003800011400160016821F480210160416821F47D
:10039000FE0141604FF41F018160FFF788FF0549AE
:1003A0004FF00060086010BD001002400000FFF830
:1003B000FFFFF6FE08ED00E0FEE702E008C8121FAE
:1003C00008C1002AFAD170477047002001E001C13E
:1003D000121F002AFBD1704710B508490868084A67
:1003E0001040B0F1005F07D14C682068FFF7B3FE02
:1003F000A446BDE81040604710BD00000040000862
:100400000000FE2FFFF72AFFFFF7E6FF034D4FF432
:10041000005421462846FFF71EFFFAE7001001406E
:10042000300400080000002000040000CA03000897
:040000050800016589
:00000001FF
