:020000040800F2
:100000000004002045010008F1020008BB020008BE
:10001000ED0200088D0100086504000800000000E2
:1000200000000000000000000000000015030008B0
:100030009101000800000000F3020008010400081C
:100040005F0100085F0100085F0100085F01000810
:100050005F0100085F0100085F0100085F01000800
:100060005F0100085F0100085F0100085F010008F0
:100070005F0100085F0100085F0100085F010008E0
:100080005F0100085F0100085F0100085F010008D0
:100090005F0100085F0100085F0100085F010008C0
:1000A0005F0100085F0100085F0100085F010008B0
:1000B0005F0100085F0100085F0100085F010008A0
:1000C0005F0100085F0100085F0100085F01000890
:1000D0005F0100085F0100085F0100085F01000880
:1000E0005F0100085F0100085F0100085F01000870
:1000F0005F0100085F0100085F0100085F01000860
:100100005F0100085F0100085F0100085F0100084F
:100110005F0100085F0100085F0100085F0100083F
:100120005F0100085F0100085F0100085F0100082F
:10013000DFF80CD000F018F80048004789040008E8
:10014000000400200648804706480047FEE7FEE717
:10015000FEE7FEE7FEE7FEE7FEE7FEE7FEE7FEE777
:100160000504000831010008064C074D06E0E06870
:1001700040F0010394E8070098471034AC42F6D3EE
:10018000FFF7DAFF840500089405000800BFFEE7CA
:10019000704700E0401E0028FCD170472DE9F04177
:1001A000024600250026002000230024002791F8A5
:1001B00003C00CF00F0591F803C00CF0100CBCF15B
:1001C000000F03D091F802C04CEA050591F800C079
:1001D000BCF1000F31D0146800202BE04FF0010C6F
:1001E0000CFA00F3B1F800C00CEA03069E4220D1DD
:1001F00083004FF00F0C0CFA03F7BC4305FA03FC25
:100200004CEA040491F803C0BCF1280F06D14FF06A
:10021000010C0CFA00FCC2F814C00AE091F803C00B
:10022000BCF1480F05D14FF0010C0CFA00FCC2F8EC
:1002300010C0401C0828D1D31460B1F800C0BCF134
:10024000FF0F34DD546800202EE000F1080C4FF061
:10025000010808FA0CF3B1F800C00CEA03069E424C
:1002600021D183004FF00F0C0CFA03F7BC4305FAC1
:1002700003FC4CEA040491F803C0BCF1280F05D13B
:1002800000F1080C08FA0CF8C2F8148091F803C0C9
:10029000BCF1480F07D100F1080C4FF0010808FA33
:1002A0000CF8C2F81080401C0828CED35460BDE87A
:1002B000F081416170470161704700BFFEE70000B7
:1002C00008B50121202000F015F84FF6FF70ADF8B9
:1002D000000010208DF8030003208DF8020069460D
:1002E0000148FFF75BFF08BD0014014000BFFEE7B7
:1002F0007047704729B1064A92690243044B9A61DC
:1003000004E0034A92698243014B9A6170470000FE
:1003100000100240704710B500F002F810BD000058
:100320000CB50020019000903348006840F4803004
:100330003149086000BF3048006800F40030009088
:100340000198401C0190009818B90198B0F5A06F71
:10035000F1D12948006800F4003010B1012000906C
:1003600001E0002000900098012843D12348006854
:1003700040F01000214908600846006820F00300A2
:1003800008600846006840F0020008601A484068AB
:10039000194948600846406848600846406840F48B
:1003A000806048600846406820F47C104860084639
:1003B000406840F4E81048600846006840F08070EB
:1003C000086000BF0C48006800F000700028F9D0F9
:1003D0000948406820F00300074948600846406823
:1003E00040F00200486000BF0348406800F00C0085
:1003F0000828F9D10CBD0000001002400020024086
:100400007047000010B51348006840F00100114922
:10041000086008464068104908400E494860084690
:1004200000680E4908400B4908600846006820F43F
:10043000802008600846406820F4FE0048604FF4C1
:100440001F008860FFF767FF4FF0006004490860F5
:1004500010BD0000001002400000FFF8FFFFF6FE94
:1004600008ED00E000BFFEE702E008C8121F08C167
:10047000002AFAD170477047002001E001C1121F25
:10048000002AFBD170470000FFF71AFF74E0002438
:1004900034E0012C03D180213848FFF70CFF022CF7
:1004A00003D120213548FFF706FF032C03D1082193
:1004B0003248FFF700FF042C03D102212F48FFF739
:1004C000FAFE052C03D140212C48FFF7F4FE062C40
:1004D00003D110212948FFF7EEFE072C03D1042198
:1004E0002648FFF7E8FE082C03D101212348FFF737
:1004F000E2FE2348FFF74DFE601C84B2092CC8DBE6
:100500001F48FFF746FE002434E0012C03D1802170
:100510001A48FFF7CEFE022C03D120211748FFF71F
:10052000C8FE032C03D108211448FFF7C2FE042C97
:1005300003D102211148FFF7BCFE052C03D1402155
:100540000E48FFF7B6FE062C03D110210B48FFF72B
:10055000B0FE072C03D104210848FFF7AAFE082C9F
:1005600003D101210548FFF7A4FE0548FFF711FE5E
:10057000601C84B2092CC8DB89E70000001401402C
:10058000FFFF0F0094050008000000200004000099
:0405900078040008E3
:0400000508000145A9
:00000001FF
